{
  "_format": "hh-sol-artifact-1",
  "contractName": "Blog",
  "sourceName": "contracts/Blog.sol",
  "abi": [
    {
      "inputs": [],
      "stateMutability": "nonpayable",
      "type": "constructor"
    },
    {
      "anonymous": false,
      "inputs": [
        {
          "indexed": false,
          "internalType": "uint256",
          "name": "postId",
          "type": "uint256"
        },
        {
          "indexed": false,
          "internalType": "string",
          "name": "title",
          "type": "string"
        },
        {
          "indexed": false,
          "internalType": "address",
          "name": "author",
          "type": "address"
        }
      ],
      "name": "PostCreated",
      "type": "event"
    },
    {
      "inputs": [
        {
          "internalType": "string",
          "name": "_title",
          "type": "string"
        },
        {
          "internalType": "string",
          "name": "_content",
          "type": "string"
        }
      ],
      "name": "createPost",
      "outputs": [],
      "stateMutability": "nonpayable",
      "type": "function"
    },
    {
      "inputs": [],
      "name": "getAllPosts",
      "outputs": [
        {
          "components": [
            {
              "internalType": "string",
              "name": "title",
              "type": "string"
            },
            {
              "internalType": "string",
              "name": "content",
              "type": "string"
            },
            {
              "internalType": "address",
              "name": "author",
              "type": "address"
            }
          ],
          "internalType": "struct Blog.Post[]",
          "name": "",
          "type": "tuple[]"
        }
      ],
      "stateMutability": "view",
      "type": "function"
    },
    {
      "inputs": [
        {
          "internalType": "uint256",
          "name": "postId",
          "type": "uint256"
        }
      ],
      "name": "getPost",
      "outputs": [
        {
          "internalType": "string",
          "name": "title",
          "type": "string"
        },
        {
          "internalType": "string",
          "name": "content",
          "type": "string"
        },
        {
          "internalType": "address",
          "name": "author",
          "type": "address"
        }
      ],
      "stateMutability": "view",
      "type": "function"
    },
    {
      "inputs": [],
      "name": "owner",
      "outputs": [
        {
          "internalType": "address",
          "name": "",
          "type": "address"
        }
      ],
      "stateMutability": "view",
      "type": "function"
    },
    {
      "inputs": [],
      "name": "postCount",
      "outputs": [
        {
          "internalType": "uint256",
          "name": "",
          "type": "uint256"
        }
      ],
      "stateMutability": "view",
      "type": "function"
    },
    {
      "inputs": [
        {
          "internalType": "uint256",
          "name": "",
          "type": "uint256"
        }
      ],
      "name": "posts",
      "outputs": [
        {
          "internalType": "string",
          "name": "title",
          "type": "string"
        },
        {
          "internalType": "string",
          "name": "content",
          "type": "string"
        },
        {
          "internalType": "address",
          "name": "author",
          "type": "address"
        }
      ],
      "stateMutability": "view",
      "type": "function"
    },
    {
      "inputs": [],
      "name": "viewPostsCount",
      "outputs": [
        {
          "internalType": "uint256",
          "name": "_postCount",
          "type": "uint256"
        }
      ],
      "stateMutability": "view",
      "type": "function"
    }
  ],
  "bytecode": "0x608060405234801561001057600080fd5b50336000806101000a81548173ffffffffffffffffffffffffffffffffffffffff021916908373ffffffffffffffffffffffffffffffffffffffff160217905550611036806100606000396000f3fe608060405234801561001057600080fd5b506004361061007d5760003560e01c8063392338f51161005b578063392338f5146100f057806340731c241461010c5780638da5cb5b1461013e578063ac1b3d241461015c5761007d565b80630b1e7f831461008257806317906c2e146100b457806330561100146100d2575b600080fd5b61009c60048036038101906100979190610a42565b61017a565b6040516100ab93929190610c4a565b60405180910390f35b6100bc6102d4565b6040516100c99190610caf565b60405180910390f35b6100da6102da565b6040516100e79190610c28565b60405180910390f35b61010a600480360381019061010591906109d6565b61056f565b005b61012660048036038101906101219190610a42565b610692565b60405161013593929190610c4a565b60405180910390f35b610146610851565b6040516101539190610c0d565b60405180910390f35b610164610875565b6040516101719190610caf565b60405180910390f35b600160205280600052604060002060009150905080600001805461019d90610e76565b80601f01602080910402602001604051908101604052809291908181526020018280546101c990610e76565b80156102165780601f106101eb57610100808354040283529160200191610216565b820191906000526020600020905b8154815290600101906020018083116101f957829003601f168201915b50505050509080600101805461022b90610e76565b80601f016020809104026020016040519081016040528092919081815260200182805461025790610e76565b80156102a45780601f10610279576101008083540402835291602001916102a4565b820191906000526020600020905b81548152906001019060200180831161028757829003601f168201915b5050505050908060020160009054906101000a900473ffffffffffffffffffffffffffffffffffffffff16905083565b60025481565b6060600060025467ffffffffffffffff811115610320577f4e487b7100000000000000000000000000000000000000000000000000000000600052604160045260246000fd5b60405190808252806020026020018201604052801561035957816020015b61034661087f565b81526020019060019003908161033e5790505b5090506000600190505b6002548111610567576001600082815260200190815260200160002060405180606001604052908160008201805461039a90610e76565b80601f01602080910402602001604051908101604052809291908181526020018280546103c690610e76565b80156104135780601f106103e857610100808354040283529160200191610413565b820191906000526020600020905b8154815290600101906020018083116103f657829003601f168201915b5050505050815260200160018201805461042c90610e76565b80601f016020809104026020016040519081016040528092919081815260200182805461045890610e76565b80156104a55780601f1061047a576101008083540402835291602001916104a5565b820191906000526020600020905b81548152906001019060200180831161048857829003601f168201915b505050505081526020016002820160009054906101000a900473ffffffffffffffffffffffffffffffffffffffff1673ffffffffffffffffffffffffffffffffffffffff1673ffffffffffffffffffffffffffffffffffffffff1681525050826001836105129190610dc4565b81518110610549577f4e487b7100000000000000000000000000000000000000000000000000000000600052603260045260246000fd5b6020026020010181905250808061055f90610ed9565b915050610363565b508091505090565b6002600081548092919061058290610ed9565b919050555060405180606001604052808381526020018281526020013373ffffffffffffffffffffffffffffffffffffffff1681525060016000600254815260200190815260200160002060008201518160000190805190602001906105e99291906108b6565b5060208201518160010190805190602001906106069291906108b6565b5060408201518160020160006101000a81548173ffffffffffffffffffffffffffffffffffffffff021916908373ffffffffffffffffffffffffffffffffffffffff1602179055509050507f618e7c0a5a81623326df1e96b95cff24f2c4577dee149d58c750693fc1059a14600254833360405161068693929190610cca565b60405180910390a15050565b606080600080841180156106a857506002548411155b6106e7576040517f08c379a00000000000000000000000000000000000000000000000000000000081526004016106de90610c8f565b60405180910390fd5b600060016000868152602001908152602001600020905080600001816001018260020160009054906101000a900473ffffffffffffffffffffffffffffffffffffffff1682805461073790610e76565b80601f016020809104026020016040519081016040528092919081815260200182805461076390610e76565b80156107b05780601f10610785576101008083540402835291602001916107b0565b820191906000526020600020905b81548152906001019060200180831161079357829003601f168201915b505050505092508180546107c390610e76565b80601f01602080910402602001604051908101604052809291908181526020018280546107ef90610e76565b801561083c5780601f106108115761010080835404028352916020019161083c565b820191906000526020600020905b81548152906001019060200180831161081f57829003601f168201915b50505050509150935093509350509193909250565b60008054906101000a900473ffffffffffffffffffffffffffffffffffffffff1681565b6000600254905090565b60405180606001604052806060815260200160608152602001600073ffffffffffffffffffffffffffffffffffffffff1681525090565b8280546108c290610e76565b90600052602060002090601f0160209004810192826108e4576000855561092b565b82601f106108fd57805160ff191683800117855561092b565b8280016001018555821561092b579182015b8281111561092a57825182559160200191906001019061090f565b5b509050610938919061093c565b5090565b5b8082111561095557600081600090555060010161093d565b5090565b600061096c61096784610d2d565b610d08565b90508281526020810184848401111561098457600080fd5b61098f848285610e34565b509392505050565b600082601f8301126109a857600080fd5b81356109b8848260208601610959565b91505092915050565b6000813590506109d081610fe9565b92915050565b600080604083850312156109e957600080fd5b600083013567ffffffffffffffff811115610a0357600080fd5b610a0f85828601610997565b925050602083013567ffffffffffffffff811115610a2c57600080fd5b610a3885828601610997565b9150509250929050565b600060208284031215610a5457600080fd5b6000610a62848285016109c1565b91505092915050565b6000610a778383610ba7565b905092915050565b610a8881610df8565b82525050565b610a9781610df8565b82525050565b6000610aa882610d6e565b610ab28185610d91565b935083602082028501610ac485610d5e565b8060005b85811015610b005784840389528151610ae18582610a6b565b9450610aec83610d84565b925060208a01995050600181019050610ac8565b50829750879550505050505092915050565b6000610b1d82610d79565b610b278185610da2565b9350610b37818560208601610e43565b610b4081610faf565b840191505092915050565b6000610b5682610d79565b610b608185610db3565b9350610b70818560208601610e43565b610b7981610faf565b840191505092915050565b6000610b91600f83610db3565b9150610b9c82610fc0565b602082019050919050565b60006060830160008301518482036000860152610bc48282610b12565b91505060208301518482036020860152610bde8282610b12565b9150506040830151610bf36040860182610a7f565b508091505092915050565b610c0781610e2a565b82525050565b6000602082019050610c226000830184610a8e565b92915050565b60006020820190508181036000830152610c428184610a9d565b905092915050565b60006060820190508181036000830152610c648186610b4b565b90508181036020830152610c788185610b4b565b9050610c876040830184610a8e565b949350505050565b60006020820190508181036000830152610ca881610b84565b9050919050565b6000602082019050610cc46000830184610bfe565b92915050565b6000606082019050610cdf6000830186610bfe565b8181036020830152610cf18185610b4b565b9050610d006040830184610a8e565b949350505050565b6000610d12610d23565b9050610d1e8282610ea8565b919050565b6000604051905090565b600067ffffffffffffffff821115610d4857610d47610f80565b5b610d5182610faf565b9050602081019050919050565b6000819050602082019050919050565b600081519050919050565b600081519050919050565b6000602082019050919050565b600082825260208201905092915050565b600082825260208201905092915050565b600082825260208201905092915050565b6000610dcf82610e2a565b9150610dda83610e2a565b925082821015610ded57610dec610f22565b5b828203905092915050565b6000610e0382610e0a565b9050919050565b600073ffffffffffffffffffffffffffffffffffffffff82169050919050565b6000819050919050565b82818337600083830152505050565b60005b83811015610e61578082015181840152602081019050610e46565b83811115610e70576000848401525b50505050565b60006002820490506001821680610e8e57607f821691505b60208210811415610ea257610ea1610f51565b5b50919050565b610eb182610faf565b810181811067ffffffffffffffff82111715610ed057610ecf610f80565b5b80604052505050565b6000610ee482610e2a565b91507fffffffffffffffffffffffffffffffffffffffffffffffffffffffffffffffff821415610f1757610f16610f22565b5b600182019050919050565b7f4e487b7100000000000000000000000000000000000000000000000000000000600052601160045260246000fd5b7f4e487b7100000000000000000000000000000000000000000000000000000000600052602260045260246000fd5b7f4e487b7100000000000000000000000000000000000000000000000000000000600052604160045260246000fd5b6000601f19601f8301169050919050565b7f496e76616c696420706f73742049440000000000000000000000000000000000600082015250565b610ff281610e2a565b8114610ffd57600080fd5b5056fea264697066735822122020b740084160f61b0538b9bae235c1efc464cb6543aa7294641618fb00b0f88964736f6c63430008020033",
  "linkReferences": {},
  "deployedLinkReferences": {}
}